:020000040000fa
:080000000002040000000000f2
:020000040000fa
:100400006fce20000e3f24000e0188000000000087
:10041000000020000000e000020032000001200087
:10042000200288000c000700602b2600010020003d
:100430001f000700100020000000e0000200320052
:10044000b602020000000000e059020000000000b7
:100450000040da000000fe004440a90040162000e1
:100460000000e0000300320000002000a00188002e
:100470004440a80000000600f03fb1000180b10038
:1004800006003500ee03090000000000403fb10007
:100490000180b100fbff3d001000b000203fb00024
:1004a0000200350000800900000000000000060086
:1004b00091018800800078000000eb0015003700f3
:1004c000e280400032a0b4009101ba00e280400016
:1004d00032a0b4009102ba00e280400032a0b40021
:1004e0000002eb00472bde00f507b200602ce100b4
:1004f00004003a000059eb008301e900fdff3e00d3
:10050000040037006128e100010032000082eb00a6
:10051000040007001101ba000200e000e8ff3a0001
:10052000000006003159ba008301e9000c003200d6
:100530002159ba008301e900080032000400e000fc
:1005400003003a00e280400032a0b400f5ff37001b
:1005500011d9ba008301e900faff3a008100e800ee
:10056000e180400032a0b40000000600025b0200ff
:100570000000000000000600ac4a0400000000007b
:100580000a490400000000001849040000000000af
:100590002649040000000000324904000000000069
:1005a000785e040000000000c2510400000000005a
:1005b0009c51040000000000aa510400000000004b
:1005c000b851040000000000b22d0400000000003b
:1005d0001a5b040000000000702d04000000000001
:1005e000e22c040000000000ce42040000000000e5
:1005f0009841040000000000466304000000000071
:10060000e046040000000000c245040000000000b5
:100610002a35040000000000d03304000000000070
:100620003c3d040000000000c8570400000000002a
:10063000a0610400000000000040da000000fe009d
:10064000889fbe0080047800e03d82000000e0004a
:1006500004003a000e0007000084eb000000e000f8
:1006600008003500e83d82000900e0000500320086
:1006700009004400060007000000e00001003d0002
:100680000084eb00080078004f04be000000060064
:10069000800078000100e00003003a0060ae200016
:1006a000e03d8a00000005000080eb0062ce2000e3
:1006b000828f500002003e00e13d8a000000eb0006
:1006c00000000600889fbe008a9fbe008c1f780035
:1006d000260107001002200002003b00c0408800f5
:1006e0002a0137008a0062006408e10002003a0033
:1006f000c0408800320137006108e100fcff320091
:100700000800be00030478006905070001f0a1009d
:100710003208070008f0a600040037000001be0000
:1007200091042400b0fd20000103070009f0a70098
:1007300001f0a2001e0137004f89de00820178001f
:1007400022013700f4ff2f00300137001400200091
:100750002e0137000001be00470107000470a7000a
:1007600003f0a1006509b100160032000d0035004c
:100770006828e10006003500f0ff2f00f1ff270098
:100780000300e00013003b0001002800000005000a
:1007900000004000818048008502e900fcff3a002b
:1007a00008003700f88f420002003c008000eb0098
:1007b000000005008100d1000080d3008502e80020
:1007c000fcff3a000300e00002003b006000100064
:1007d000e0801800000006000c00fa00889fbe00b0
:1007e0008a9fbe008c9fbe00e00007000206be008c
:1007f000840578000200be000200200033010700db
:1008000005003a008b02b300120020002f01070000
:1008100001003a00f8856d000c01be00c60007001b
:100820000800be009b0032000b08a3009e003a00a7
:100830000df0a7000be0a00009f0a7000bf0a0004e
:1008400009f0a1000801be00bb0007000bf0a600e4
:100850009500320001003c000bd0a0008acf75004b
:10086000b20033006000b8006250e1009900390026
:10087000a1003e000b28a300a2003a000bf8a30041
:10088000060032000b58a300a70032000801be008a
:10089000a90007000800be00940032000800be0056
:1008a000310107000004be00050578000bf0a70029
:1008b0000b30a6000bf0a1005b079800324f200020
:1008c00053f32300a1ff070005003d000800be0010
:1008d00012002000310107000004be000a05e900f3
:1008e0004a0798006150b90093ff0700008fbe00cf
:1008f0000c01be007c03070096ff0700300798003c
:100900000100e00002003d0060001000e0801800df
:10091000f2ff2700820f5000e08f580064003e0075
:100920000c00be008bff070020079800f207200094
:10093000820f5000e08f580005003c0012f82f0095
:10094000f3ff2f00820f5000838f580009003d00f5
:100950000a00e0000300320001003c000201ea004e
:10096000020578006000b800200798003a07980058
:10097000190037003e0090006100b9006eff0700cb
:10098000809fbe000c00be004109dd004811de0062
:100990007208b100cd0007000005be001e01be00b8
:1009a000510307004f01be0061020700809fbe0097
:1009b0000c00be000a01be005d0207001e01be0061
:1009c000490307004f01be00620207008221270091
:1009d00013f32300440307000005be002e0090001f
:1009e0006100b90054ff070001f0a2000c01be0035
:1009f000580207000006be000800be0008080700f5
:100a00000c01be00380307000a01be0051020700b6
:100a1000809fbe004a0007002e0590000af0a70044
:100a20000a05ea00050037000800be000801be0004
:100a30002d0307000004be000c00be000801be002c
:100a40000a00a700280307000006be000a05d1001f
:100a5000f5ff3a005e01900002e0a60003003700b7
:100a60000001be0036000700910407000004be002c
:100a70004f00be00710807000801be001a030700fe
:100a80003e019000c5000700de0590000bf0a700b6
:100a900001f0a2004f06be004f05be004f04be008d
:100aa0000080fa000000060025000700f9ff37006b
:100ab000270007006000b8000bd0a7000bc0a00003
:100ac0000be0a7000bc0a2000bc0a70001f8270095
:100ad000f0ff37000df8a300020032001e000700ef
:100ae000190007000bf8a300eaff32000b30a70043
:100af00001f0a200e7ff37000df8a300f9ff3a006c
:100b0000f7ff37000801be000b000700e6ff3200c8
:100b100001003c000df0a2006000b8000df0a7003d
:100b200009000700dbff37000b000700f1ff27007b
:100b3000f0ff2f00d7ff37000100070003ff370049
:100b400001f823000000050001f82700000005005f
:100b5000200220000100370010022000c040880061
:100b60000000060004002000280037000004be003a
:100b7000410007000003be000405be000200be00e5
:100b80003d000700844f7500000006000200be0013
:100b90006450e100050036006420e10002003600e8
:100ba0000968a30001003a000800be000160a0002f
:100bb0004f0678004f05be004f04be00000006003f
:100bc000f0ff2f00f1ff2700f9ff3700881f7800a2
:100bd000030478000300e00007003d0060001000ff
:100be000e080180060011900e081190002003b005c
:100bf00001f02d00030037008a00070008f0a7006d
:100c000001f0a0004f04780000000600889fbe009d
:100c10008a9fbe00841f7800d4ff07004f00780031
:100c200011003300f0ff2f00838f6c0006003b00a3
:100c3000040565000a00a7000800370009f0a600b7
:100c40001000200008003700820f5400838f5c00e2
:100c5000030039001000200001003e0000002000c9
:100c600009f0a7000000ea004f05be004f04be00d7
:100c70000000e00000000600c70ade00f107b20035
:100c8000f50fb20008003200e1cf4200020032004e
:100c90000170a00024000500810f700001003200e7
:100ca0000408050044000500810f700002003a00ae
:100cb000140005008502e9000000400081c04800e2
:100cc000fcff3b000170a00024000500889fbe00cf
:100cd0008a9fbe000003be00e7ff0700850578007d
:100ce00082815200020020006220e10004003a00ec
:100cf000f307b100040035007718e1000400350067
:100d00000600be00140037006000b8000f00370076
:100d1000f50f2000faff2f008502d1000a85d300cd
:100d20008301e900fcff3b00818462000004650050
:100d3000890f7400f2ff32008582ea000a85ea001a
:100d400081846200000465006500070007f0a700c9
:100d500001f0a0000081eb000200e0004f05be00a2
:100d60004f04be00000006000003be00c2ff0700e3
:100d70006220e100020032000600be00050005000e
:100d8000e507b100f107b20004f023008480700091
:100d900007f0a70001f0a000240005000003be003a
:100da000b5ff07006220e100020032000600be002d
:100db0000000060085024100e30f20000328e10047
:100dc00005003c00a3fe2f000328e10007003d00c2
:100dd0000500200001003700f50f20002002200050
:100de000c04088006000b8000800370013002000f1
:100df0008381520005003d008100d1000080d300b6
:100e00008301e800fcff3a0005002000c72add004e
:100e1000f107b2008580700007f0a70001f0a00084
:100e200000000600889fbe008a9fbe0000827000fe
:100e30000402710004827100260032000004be002a
:100e40000200be006011b8006b092000950220006e
:100e50000182cf000a0039000541b1000082cf00b5
:100e6000070039000541b1000982cf0004003900b4
:100e70000541b1000882cf00010039000541b100f1
:100e800005425200120032000a003b0082817100cc
:100e9000610164008100d1000080d3008984d30007
:100ea0000884d3008b05e8000442e800f7ff3a000d
:100eb000070037000804440089844c000000480003
:100ec000818048008b05e9000442e900f9ff3a00ff
:100ed000030007004f05be004f04be0000000600df
:100ee00081002000618055000b003d000b002000b8
:100ef00061fe2f000100e1001d00340082817100bd
:100f0000610164008904d1000884d3000000e80076
:100f1000faff3a00710020006100640003007000d5
:100f2000020060000900320061044400e0844c00cb
:100f30000988a500050032008b05e8006808e1007b
:100f400002003a008904d1000884d300f20f200087
:100f50000258e10005003d00c75ddd00f907b20061
:100f60008980750008007800000006000bf8270053
:100f70008b0078000000050080017800808f500011
:100f80000900310002824000800f52000600360046
:100f90008401780082004000c36078000201e9000b
:100fa000fdff3a00000006000200e00003003200ee
:100fb000b15978000201e900fbff3700000006008c
:100fc0008001780002003700b15978000201e90081
:100fd0000200e000fcff3a0000000600889fbe000f
:100fe0008a9fbe008c9fbe00c17a2400623d8200b1
:100ff0000200e0000b003a0064814000623d8a007c
:10100000b23d8a00a1009800a13d8a0021419000d4
:101010000204a000a2409800614190000204a000d8
:10102000e2409800670440004244de004244dd0094
:10103000a43d820061ae200069ce2000818454006e
:101040002d002000110009008d04d80080067800d2
:101050000886e8000c0646008001eb00020037001d
:10106000130020000b027800a44090000108a300a8
:10107000020032000a003700120a780014017800da
:10108000a24090000108a300fbff3200880042004c
:10109000810f5100020039000800e00042003d00cd
:1010a000940578000b00a100848f5500edff3e00f1
:1010b000e18f5100eaff3a008d0f54000200360024
:1010c000890f5400140039006141b8006148b9002b
:1010d000b4ff2f00050020000000520081805a005c
:1010e000800f5100818f59000200350064054400d3
:1010f0000a00370060ae20009ace2000000555009f
:1011000008054500110009000985d8000980b900cb
:1011100000057800010037000c0578000a0078000f
:1011200047fd0700e10f400005003a006405440058
:101130000a00780042fd0700e10f40002b0032005a
:10114000b13d820080087800b13d8200e48140001a
:1011500021419000830f5000020032000204a000e1
:10116000010037000204a100a24098006405550068
:101170000a0540000a087800ba3d8a00c17a2400b6
:10118000010d7800b23d8200a24090000104a00051
:1011900021419800a04090000104a1002140980046
:1011a0008001eb00afff3700a13d8a00810f5100a5
:1011b000070036001101be00c23d8a00d33d8a00ff
:1011c000940878000041eb00a13d8200a240980005
:1011d000a33d8200030a7800a44090000104a0000f
:1011e0002142980064004200010037000000eb003b
:1011f0004f06be004f05be004f04be0000000600b3
:101200000000e0000800320064005000a13d8200b0
:10121000810f500001003100a03d8a00a0409000e5
:101220000104a1002140980000000600889fbe0034
:101230008a9fbe000004be000900e00007003a00db
:101240000000eb000800e0003600320008007800e3
:10125000ebff07000000eb00320037000800e00061
:1012600003003a00090078005cff07002d003700fa
:10127000640054009005780068f897000008a30007
:101280000200320008007800ddff07000900780046
:1012900052ff0700800478000000eb000900e00026
:1012a00020003200888f54001b00320069bd970077
:1012b0000905550042d5de0088855500c2ddde00f7
:1012c0000a0178008b0f5500010036000b017800f1
:1012d0004211dd00880078000900780038ff07001f
:1012e000888f54000e0031004255dd000a8544000d
:1012f000880f55000a0036000804550042c4de007d
:101300004244dd0008844400c03d8200d13d82009b
:10131000008cbe0002003700080078000100370092
:10132000090078004f05be004f04be000000060013
:1013300007f82700078361000638e10004003a003f
:10134000f7072000878361008703710001003a00de
:1013500003f0a200889fbe008a9fbe008c9fbe0043
:10136000470ade000480a100c71ade000580a10044
:10137000070028000785600087856100f70f2000bf
:101380000720e1009e0032000728e1009c003200a7
:10139000010678000400e000b4003200f7072000e6
:1013a000878060000170a0000500e000c0003200ee
:1013b000f7072000878161000370a0000506520036
:1013c0000f003a000b50e1000b0032000308e1006f
:1013d00002003a000200e1007e00320002045000e8
:1013e00083845800040031000001fd008101fd00ec
:1013f0008402fd008a05fd006044b800210037002a
:101400000520e10005003d000001fd008101fd0017
:101410008402fd008a05fd00050652007a60e100a5
:10142000050035000170a1004722dd0084807000b6
:101430008a807000630037006044b800ef026600e5
:1014400007ff2f00070666000500e00006003400d5
:10145000f08312008714dd000511de00071bdd009c
:10146000060171008519de007060e100050035009d
:101470000904780082047800030178008001eb0001
:10148000700656000b50e10003003a0002004000d5
:10149000838048000400370060041400e0841c00ce
:1014a00002005800838058000188a3000600320023
:1014b0008100d1000080d3008984d3000884d30048
:1014c0000402e800270037000178a30025003a0055
:1014d0000100e000030032008186cf0069865600db
:1014e0000a0037008c0020000000e00004003a00f1
:1014f00009007800880478000004eb0070025200b4
:101500008086cf000d0646000c06e9007060e10001
:101510000600350080007800090078008804780013
:101520000004eb0070065600700252000c00e00050
:101530000c0034008c08dd00f00316000703de0009
:10154000868070000c00dd00074bde000600700096
:101550008c4cdd000743de00868474000c44dd0003
:101560000c0252006120e1002000350061016000a2
:101570000700280087816400f7ff27008783640045
:10158000070374000300e0000600320082037300ca
:10159000040032000000e800e08048000188a30059
:1015a0000e003a00f70f20000720e1004a003d003e
:1015b0000170a1004722dd00810072008a80700066
:1015c0000000be004f06be004f05be004f04be0027
:1015d000000006006000b800faff37008100d1006b
:1015e0000080d3000402e800eeff37000401780019
:1015f000890174008d0207008a807000f1ff3700b6
:10160000b4020700070278000001fd008101fd001f
:10161000b002070087027800850372000778a300f4
:10162000040032000001fd008101fd00c30207003b
:10163000e4ff3700850362000768a300080032005a
:101640000b50e10003003200f0ff2f00f1ff2700f4
:10165000dcff37000001fd008101fd00d9ff3700ec
:101660000468a300d7ff3200faff3700f8ff270015
:10167000888360000b003a000000e00009003a0097
:101680008303640082837300020032000200be0004
:10169000ccff37000b50e100ceff3a000200be0045
:1016a000c8ff370014002000810064003eff3700af
:1016b000f8ff27008883610004003a000200e00080
:1016c00002003a008c007800beff370015002000b1
:1016d0008301640039ff370001f827000000200073
:1016e00081007500b7ff37000383680007002800fa
:1016f00007036300470ade000480a100c71ade006a
:101700000580a100f70f20000720e1004200320011
:101710000728e10040003200889fbe008a9fbe007b
:101720008c1f7800f107b200f307b2000400e0005c
:10173000640032000170a0000500e0006800320083
:101740000370a00085054200eb07b1000204b80059
:101750000302b8008484440060854a00020ab8008d
:10176000848444000a854a00030ab8000405450041
:10177000040033000804d0008984d2000a85d20016
:101780008b05e9006158e1003d00350002102000a2
:10179000090161000308200089816100f70720002a
:1017a0008783640008867300c84cde00c853dd00e0
:1017b000878474004855de000300e0000600320014
:1017c00082037600040032008904e80060054d00c1
:1017d0000a88a3000c003a00f70f20000758e10028
:1017e00044003d000a70a100c75ddd000a85750058
:1017f0008a007300090078004f0678004f05be008c
:101800004f04be00000006000a05d1008984d30001
:101810008b05e800f0ff3700881f78000604780089
:101820002c020700070278000001fd008101fd0085
:101830002802070087027800850372000778a3005a
:10184000050032000001fd008101fd003b020700a0
:101850004f04780000000600850372000748a300cb
:1018600003003200f0ff2f00f1ff2700f8ff3700e0
:101870000000200001f8270088807000f4ff370086
:10188000880178004848dd00808171004848de000a
:10189000c850dd0001007000c850de00060478006a
:1018a0000b017800e101070088807000d2ff37004b
:1018b0000500e000050032001700200028020700a4
:1018c0009dff370081037000f9ff3a008600780021
:1018d0004f0678004f05be004f04be000000050013
:1018e00083037100f9ff3200270020001c0207006b
:1018f00094ff370001f8270086807000f4ff37005e
:1019000001f8a3001d003a004709de00f40f200093
:101910000410e100260032000200e0002c0032003a
:10192000f107b200c708dd004902de0084807000c4
:101930004700dd0001e0a000f207b1003702070018
:10194000f207b00004042000840160004700de00bc
:10195000490add0004007000c708de000300e00053
:101960000200320061004000e0804800f107b20050
:101970004711dd008280700000000600f4ff2700a0
:10198000048260008002720001003a00000006003c
:1019900006f827000620e1001200350081026300ee
:1019a00006826a00040270000e0032000600370052
:1019b00004f827000482680003003a0004002000b5
:1019c00000026a000b0032000160a0000000060067
:1019d0000082700001003a00000006007a02070051
:1019e000d6ff370012022000c2408800f0ff2f000f
:1019f000f1ff270000000600889fbe003400f800b9
:101a000003002000a30188000300280083846000f5
:101a100001f0a100b2fd200093f423000201500068
:101a2000838158000c00310002002000039823003d
:101a30000201500083815800030039006202070050
:101a40003900070093020700898068003400f9001c
:101a50004f04be00000006008a9fbe008c9fbe009f
:101a600002002000039824000001510081815900e8
:101a70001e00390054020700d90207000005eb00e0
:101a80000100e00003003d0060001000e08018004d
:101a90000a002800630362006333b8000660010097
:101aa0002100070000000000080037006d0007005b
:101ab0000005eb00050037001b0007000af0a2003c
:101ac00002003700670007000a00280071020700c3
:101ad000898068008a8068004f06be004f05be00fe
:101ae0003400f9004f04be00000006007901070031
:101af0000778a300050032000160a0008980700013
:101b000012022000c2408800f3ff37000768a300dc
:101b100003003200f0ff2f00f1ff2700f8ff37002d
:101b20006000b800f6ff37000100e000120032004c
:101b30006f03410010003500809fbe00821f7800b7
:101b40000002be0082017800eb020700640341003e
:101b500003003d004300200084de2900020037001e
:101b60005300200044de29000e030700cf01780057
:101b70004f02be00e002070000000600889fbe0082
:101b80003400f80003002000a301880003002800af
:101b90008384600001f0a100b2fd200093f42300d3
:101ba0000201500083815800100031000200200023
:101bb0000398230002015000838158000600390079
:101bc0000102070027000700320207003400f90075
:101bd0004f04be000000060001f8230000002000b2
:101be0003400f9004f04be00000006008a9fbe00ca
:101bf0008c9fbe00020020000398240000015100c9
:101c000081815900b9ff3900ef0107007402070014
:101c10000005eb000100e00003003d006000100043
:101c2000e08018000a002800630362006333b800f4
:101c30008004eb00066001000a0007000005eb00cd
:101c4000a2ff3700b8ff07000af0a2009fff37008d
:101c5000040007000a0028009cff3700b2ff0700bd
:101c60009aff37000100e0000e0032006f034100d0
:101c70000c0035000002be00820178009e020700c1
:101c80006403410003003d0043002000c4df29003d
:101c9000020037005300200084df2900c102070042
:101ca00000000600000020000100240002000500e2
:101cb000889fbe008a9fbe008c9fbe001b00200034
:101cc0000202be00058668000600280006066600bf
:101cd0004709de00f20fb200820032000243e80042
:101ce00080003200c729de00f30fb2007d00320011
:101cf0000343e8007b003200f107b2000170a0004e
:101d0000f507b2000570a000c708dd004903de003a
:101d1000868070004700dd00c72add004923de0011
:101d2000868272004722dd00030551000403500043
:101d30008583580003003100000040008180480086
:101d40000a05e9008c1f78008a9fbe00040050003d
:101d5000858058000402420085824a00000040004d
:101d6000818048000005eb000004be006033b8002d
:101d70000406be000d48e1005600310011000900c4
:101d80004dccd8000c01b8000d02b8008481410090
:101d900060824a008283530003045c0084845c00f8
:101da00060055d000a00e00025003a00800578002b
:101db0000d40e100490031008800780007007800fc
:101dc000110009004d88d8000c01b8000d02b800c0
:101dd0008481410060824a006003110083835b00bc
:101de00004045c00e0845c000900e00021003a008b
:101df0004f01be000300e0002b003200e301600051
:101e0000070673008c8171000100320064007000cd
:101e10004200de004e5edd000c007000c258de00a5
:101e200001e0a0009b010700cf01780081807100d4
:101e30004f06be004f05be004f04be000000060066
:101e40008c8343000d044c00e0844c0060054d0081
:101e50000000e9000a00e000d4ff32008c83430058
:101e60000d044c00e0844c0060054d000000e900ca
:101e7000ceff37000c0343008d834b0060044c0001
:101e8000e0844c000000e9000900e000d8ff3200c7
:101e90000c0343008d834b0060044c00e0844c0035
:101ea0000000e900d2ff37004200de004e5edd0098
:101eb0000c007000c258de0001e0a000cf017800e5
:101ec0000300e000daff320060001000e08018003c
:101ed000d7ff3700f0ff2f00aaff3700f0ff2f00d9
:101ee000b9ff37000404be007a00070087067800b7
:101ef0000004fd008104fd007600070007836600f2
:101f00000678a300030032000960a7000800be00a5
:101f10002c0037000d78a300020032000800be003c
:101f2000280037000778a30026003a0001f0a1003e
:101f300009f0a1000668a30003003200f1ff2700aa
:101f4000f0ff2f00baff37000d68a3000300320036
:101f50000800be008c807000b5ff37000768a30042
:101f600007003a000648a30003003200f1ff2700f3
:101f7000f0ff2f00aeff37000d48a3000300320032
:101f80006000b8008c807000a9ff37000748a300ec
:101f90000400320001f82700000020008c8070004f
:101fa000a3ff3700080107000004fd008104fd00c5
:101fb00002057800040107000802be008a017800cb
:101fc00059ff37000160a00012022000c2408800c3
:101fd00097ff37000100e000120032000500e0002a
:101fe00010003200889fbe008a9fbe008c9fbe00fa
:101ff0000006eb0001f8a3000300320060001000af
:10200000e08018000cf0a00005f8a30003003200e7
:1020100060021200e0821a000cf0a2008005eb00c2
:1020200041ff37006000b800020005000100e00039
:1020300026003200610111007810e10023003c000d
:102040006022b8007010e1000400350080027800c2
:10205000010078008000eb00700151000200e000f8
:102060000900340070031100062add00822ade0018
:102070008603dd00878272000200de00860bdd0031
:10208000070070008208de0084817100f4ff2700e1
:10209000048262008481710004002800848262004e
:1020a0006102600005f0a6000000060004827100d5
:1020b000070032000000e800e08048000000060051
:1020c0000002be006000b800efff37006000b800fb
:1020d000000006002700200001f0a70017002000e4
:1020e000470bde00f60fb200040032000643e800a2
:1020f0000a0032004702b300000006000103780026
:10210000f607b2000603700002003a000703b300ae
:10211000000006008702b3000000060001037800fb
:10212000f607b20006037000020032000770a0003c
:10213000000006000760a000000006000478a3006d
:10214000040032000578a300030032000168a300f8
:1021500001003a000200be000160a000000006007d
:10216000889fbe000004eb006138e10016003a00d1
:102170000100e00008003a00c800de004800dd0071
:10218000880020000100e00003003a00c800de00e3
:102190004800dd00680444008184cf00e9845400d5
:1021a000060034008908dd00f08314008703de0098
:1021b000878070000900dd000904440061021400fa
:1021c0004f04be00000006000300e00008003a00d3
:1021d000c811de004811dd00880020000300e00087
:1021e00003003a00c811de004811dd006804440015
:1021f0008384cf00e9845400060034008919dd008f
:10220000f08314008713de00878171000911dd005f
:1022100009044400e1021400e9ff37008103700063
:1022200068003200889fbe008a9fbe008c9fbe005f
:102230003400f80008002000a80188000208a3006c
:10224000030032000000d0008180d2000201e900ca
:1022500081017800800278000002eb00821f780084
:102260004a1cde000801b10049db290069417c00fd
:102270000281fb000214b8004644dd000340e10087
:10228000010036000201e9004111dd001200b30037
:102290000214b8004444dd000340e10001003600b0
:1022a0000201e9004111dd001200b3000214b80080
:1022b0004244dd000340e100010036000201e90074
:1022c0004111dd001200b3000214b8000340e10028
:1022d000010036000201e9000214b800088651002e
:1022e0004763dd00492cde00080373008204780098
:1022f0004834de000940e1002e00310011000900e1
:102300000983d8004811dd00000171000214b800f3
:102310000006eb0084067800088552008985590084
:10232000040031000201e9000214b80008855200df
:1023300089855900820478000b04d1008a83d30078
:102340000d83d3000938e1001c00310011000900a1
:1023500049bbd8008002eb000003b8000204b800bb
:102360000804440089844c00e0824a00870344004a
:1023700060824c00e0814a000603560087835e00bd
:1023800004025d0083815d00010031000000e9006e
:102390008200d1000080d3004f0178004191de001f
:1023a0003400f9004f06be004f05be004f04be00ca
:1023b00000000600f00f2000d2ff3700f0ff2f00d2
:1023c000e4ff3700020005004f0ade004709de0087
:1023d000f107b200f20fb2000b003200f207b100b9
:1023e0000170a000c708dd00c901de008380700015
:1023f0004700dd000400a600000006006000100099
:10240000e080180000000600810f700001003a0013
:10241000000006008182cf000500e00010003e00b1
:102420008082cf00ee8242007028e1000400390073
:1024300007003e00800078000000eb000e0037002f
:10244000708312008600de000500dd000a00370000
:10245000708352008600dd000000eb0006003700ac
:10246000e28252008508dd00708312000603de0060
:10247000868070000500dd007507b0000501ea00e8
:102480000400a6000000060060001000e0801800b4
:102490000000060081017000270032008002eb007e
:1024a00001f8a3000300320060001000e080180073
:1024b00015002000f4072000020242002000340032
:1024c000f703200087036000060420000003630078
:1024d00002082000000161004700de00c909dd009c
:1024e00000807100c708de000600e000080032002e
:1024f00087037100060032001000b0000180b000b8
:102500000188a30002003200c108de000402e800d6
:10251000f107b200f30f20000320e10003003d00ab
:102520004722dd00810072002900370001f82700f2
:102530000000eb00260037006000b8000000060035
:10254000680212007f20e100020034006000b80041
:102550001f0037006011b8007020e1000400350052
:1025600080017800010078008000eb0070025200ca
:102570000400e00009003400f00312000719dd0038
:102580008419de000703dd00868171000400de008f
:10259000070bdd00060070008408de00f7ff27004f
:1025a0008383630087037100060028000303630030
:1025b000070032000700e00003003a0061016000fc
:1025c00002817300020032001000b0000180b000f0
:1025d0000500a6000000060001f0a00000000600b3
:1025e000889fbe008a9fbe008c9fbe000006be0072
:1025f00082057800741b2c00c5172500f3ff2f00ff
:102600003d00070023020700809fbe00810170008b
:1026100036003200e7015000608258000d003100a2
:102620000000e900c9d629006c00b8008904400008
:102630000c00be000b0178003902be00b901780021
:10264000480207003902be00b901780045020700c0
:10265000210037009002070014d52e00754826008f
:10266000030020000c03be000b0478000006be002f
:1026700082057800b2020700d3ff2f008381450056
:102680000218e100140034000003be0002047800c8
:102690000c00be000b01780094462800152d240084
:1026a000e3fd2f00a6020700e3fd2f008381450014
:1026b0000218e100080034000003be0002047800a4
:1026c0000c00be000b017800b4282600654c2400e5
:1026d000f3fb2f009a0207004f02be004f06be0018
:1026e0004f05be004f04be00000006000c00be00f7
:1026f0000b017800f8ff3700889fbe008a9fbe005c
:102700000004be000405be00030141000201e80010
:102710008000eb000a42b8000b43b80086824200fa
:1027200060804b000a4bb8008682420007004800d8
:10273000e08048000b4bb80006004000878048004e
:102740000103700002003a000001eb0012003700a4
:102750000900e00002003d000a0050008b80580094
:102760000b00e00002003d00080050008980580086
:102770008582420000004800818048008101df001e
:102780000300e0000400320085824200000048009f
:10279000818048000201e9004f05be004f04be00e1
:1027a00000000600e102410002003500fc020700c3
:1027b00000000600e2024100020035001e0307008f
:1027c00000000600e3024100020035003d0307005f
:1027d000000006006003070000000600889fbe009e
:1027e0008a9fbe008c9fbe003400f80006002000c7
:1027f000a6018800060028008686600001f0a1007e
:102800000600200007e023000603500087835800dd
:102810001200310006002000079823000603500034
:10282000878358005c003900e7fe07000005be0002
:10283000820478000002be0082017800aeff07002b
:102840004300200044cb2900430307000a02be00d6
:1028500089017800a8ff07004e003700060020001d
:102860000710240006035000878358003800310009
:102870000600200007fd2300060350008783580050
:102880000b003100d0fe07000005be008204780076
:10289000620141007f01070000067800fe01070089
:1028a00062015100809fbe00821f7800080037003f
:1028b000c5fe07000005be00820478007501070010
:1028c00065064000f4010700809fbe00821f78006b
:1028d0000a02be00890178000700240006002000db
:1028e000080020001b0207000005fd008105fd0017
:1028f0008204fd00cf0178004f02be00990107005d
:102900000a02be0089017800b2fd070001047800c8
:1029100008f8a3000200320060001000e0801800f8
:102920002d00070008f8a30002003200600010002c
:10293000e080180046cc29006665b8000603450013
:102940003602be00960178008801070011003700aa
:102950000600200007c824000603500087835800a3
:102960001300310098fe07000002be0082017800cb
:1029700001002400000020000200200095fd070057
:10298000150007007548260014d52e00030020000e
:1029900071010700bffe07008d8070003400f90050
:1029a0004f06be004f05be004f04be0000000600eb
:1029b000c8fd07000778a30003003a00b0fd20001f
:1029c00091fc2300f4ff37000160a00016022000f4
:1029d000c6408800f0ff37000100e0000d00320023
:1029e000ef0341000b003500809fbe00821f78007e
:1029f0000002be00820178003fff07004300200074
:102a000044cb2900d4020700cf0178004f02be005a
:102a100039ff070000000600f2ff2f000100370019
:102a20000001eb00abfd07000718a3006e003200a9
:102a30000728a30002003a000738a3006a0032000a
:102a4000889fbe008a9fbe008c9fbe008e1f7800ac
:102a50003400f80008002000a80188000207780070
:102a600059fe0700020478000620200086844000fa
:102a7000ca4cde00f08454006848e10001003500d3
:102a80000804e8000001eb000900e000210032002a
:102a900086c2290066c27c000482fb004622dd005b
:102aa00004e0a0000123b8000020b80086804000a8
:102ab00060814b000600220006015100e902070078
:102ac0000100780082007800618111000600280072
:102ad0000608e10004003a000000e00002003a00ad
:102ae00001002c000201e8000100e00001003a00b2
:102af0000001eb000006be0082057800670341007c
:102b00000600e00008003d004300200044ca290000
:102b10000700370005002400040020000300200007
:102b200010010700f3ff37005300200004ca2900fa
:102b3000890207000c02be008b017800eefe070040
:102b40006f83640006003200aac32900664bb800f8
:102b5000060545003a02be009a017800010107000f
:102b60000800e000130032000006be008205780075
:102b7000c4bf2000958b25000440b8000543b80071
:102b80008680400060814b0008f8a30002003200fc
:102b90008480500005015900b2020700010078004e
:102ba000820078006f8111000c02be008b0178005a
:102bb000ee0007000e00e0000400320054c52e00b5
:102bc000d5f22600e3ff2f00cbfe070031fe070001
:102bd0003400f9004f0778004f06be004f05be00d5
:102be0004f04be00000006000778a30005003a006d
:102bf0000768a300050032000718a3000300320095
:102c0000000006000160a000090037000748a3008b
:102c1000050032000718a300030032000000200066
:102c200001f82f0000000600f0ff2f00f1ff270041
:102c300012022000c2408800000006003400f800a4
:102c400003002000a3018800030028000382600025
:102c500001f0a1009221270013cb230002015000b4
:102c6000838158000d00310002002000037823000a
:102c700002015000838158002200390084807000d6
:102c8000d1fd07005300200084d129003202070043
:102c900000fe07003400f900000006007221270042
:102ca000132b240004f8a30002003200421b2f0063
:102cb000f32c2400000151008181590006003900e5
:102cc00084807000c0fd07002a000700f1fd0700a6
:102cd0003400f9000000060084807000fdfc07004d
:102ce0000758a300160032000718a3000e003a0090
:102cf0006000b80022022000c24088003400f900c1
:102d00000000060084807000affd07000400200072
:102d1000050024000300200094000700ddfd0700eb
:102d20003400f900000006000000200001f8270030
:102d300022022000c24088003400f9000000060092
:102d40000778a300050032000160a00012022000f5
:102d5000c24088003400f900000006000000200096
:102d600001f8270004f0a7006000b8003400f90063
:102d700000000600889fbe008a9fbe008c9fbe0098
:102d80000005be000204780044d9210055c5250085
:102d90004300200058fe07003e000700809fbe0051
:102da000bd0007000006be00820478000800e000b5
:102db00029003500b4bf2000958b2500b3ff2f00fc
:102dc0000a03be00de0007000003be000204780014
:102dd0000c00be0009017800a4e62d00354727004d
:102de000c3fd2f00d60007000100e00025003200df
:102df000f00341001e0035005300200084d129005b
:102e000068fe07004f02be006f0462008004eb0002
:102e10000803520089835a004435de004c3edd0031
:102e20000a057600c4bdde000a014100ccd22900ab
:102e30004245dd000c0645003c027800bc027800eb
:102e40008001eb002cfe07004f06be004f05be00c0
:102e50004f04be0000000600b4bf2000958b250083
:102e6000b3ff2f000a03be00b5000700deff3700e6
:102e70000400200005002400030020003b000700a0
:102e8000e0ff3700000020000100240002002000c5
:102e9000dcff37000100e000210032008201e80081
:102ea0002b0035007e0211001e0034006011b800b6
:102eb0007020e100040035008001780001007800f6
:102ec000cf88de00700252000400e00007003200ec
:102ed00003017800700312008601dd000400de00ab
:102ee000860bdd00070070008488de00e1026000d0
:102ef0000600280003036300f7ff270083836300b5
:102f0000828373000600e000050032000781720032
:102f10000200e0000200320061004000e080480052
:102f2000000006007e10e10001003a0000000600eb
:102f30000100e00003003500f1ff2700f0ff2f0043
:102f4000000006000100280000002000000006002c
:102f50006000b8000000060060001000e08018006b
:102f60000200370060021200e0821a000100e00057
:102f70003f0032000500e00039003200889fbe00ab
:102f80008a9fbe00820378008304510004003d0044
:102f90000002fd008102fd008904ea00830378003d
:102fa00001017800800078000000eb000503780044
:102fb000840278000002eb00060569000700350076
:102fc0000281d1008180d3000080d3000683d1002c
:102fd0008582d3000482d3008703e8007048e100b3
:102fe000060035007f48e10029003c00050278001a
:102ff000860278004fb3de00f08454000900e00040
:10300000080032000922de00708514008a2ddd00e0
:103010000b027200892ade008a35dd008b82720085
:1030200009b3de0004004000858048000601490025
:103030008c010700838353000200e0000900320086
:103040000b0028000b10e1000c003200010078009a
:1030500082007800070178004f05be004f04be00d3
:10306000000006006000b8000001eb00faff370026
:103070000400be0003017800000006000100e0002b
:10308000f2ff3a0002002c008703e800efff370050
:10309000f9012000d5ff37000003eb008101df00bc
:1030a0008301ea006f18e1000f0032000300e00026
:1030b000060032008308dd00708211008402de0009
:1030c000858070000300dd00030343000100e00081
:1030d00014003200040028000408e100130032004c
:1030e0007e011300000006008100d1008080d30023
:1030f0004f00dd00f60020008101df008301ea00bf
:103100006f18e100e9ff3a008100d1008080d30010
:103110000000eb00e60120008101df008301ea00ee
:10312000e2ff37006000b800020005000000e00088
:10313000ebff3a0001002c000603e900e8ff37002e
:1031400060001000e08018000200370060031300e8
:10315000e0831b00889fbe008a9fbe008c9fbe003c
:10316000830441000405b800050eb8000501b8004d
:103170008285450003064e00e0864e000409b80033
:103180008285450003064e00e0864e000100e00007
:1031900002003d000406560085865e000500e00042
:1031a00002003d000006560081865e000d00e00032
:1031b000740032000700e000750032006022b800a1
:1031c0008783d1000683d3008582d3000900540091
:1031d0000000e9001b003c003b0035000804e8004b
:1031e0000a0042008b804a000c014b008d814b008d
:1031f00040010700040454000300e0000e00320008
:10320000090028000918e100060032000200be0093
:10321000080178004f06be004f05be004f04be00f7
:10322000000006000200e000f8ff3a0003002c0056
:103230000804e800f5ff37006000b8000001eb006b
:10324000f4ff37000804e8007e00e10001003400cc
:10325000e0012000cfecde00ef0060000100e000a4
:103260000c003200f08110000155de000359dd0032
:1032700002057500815dde000361dd008285750059
:103280000166de000369dd000206760081eede00e5
:10329000010050004400de006501b800026001003a
:1032a0000a0042008b804a000c014b008d814b00cc
:1032b000cfff37000b0042008c804a000d014b000d
:1032c00089814b00caff3700628444000000ea0095
:1032d000030420000300e10001003400000420008a
:1032e000cfbcde00ef0060000a003200f081100069
:1032f000032add00812ade000331dd0082827200b4
:103300000133de000339dd000203730081bbde0000
:10331000010050004400de006501b80002600100b9
:103320000a0042008b804a000c014b008d814b004b
:10333000afff37000a8042008b004b000c814b002e
:103340008d814c00aaff37000a0043008b804b00a0
:103350000c814c008d814c00a5ff37000a80430092
:103360008b804c000c814c008d814c00a0ff3700fd
:103370000a8044008b804c000c814c008d814c00f5
:103380009bff37000600be0008017800a1ff370050
:103390000c01be000a00be006284440094ff3700a6
:1033a0006218e1001e003500889fbe008a9fbe00a3
:1033b0008c9fbe008301e9000004be000205be0030
:1033c000040678003c00be000801be0003010700af
:1033d0008100d0000281d2008381d2003c004100f4
:1033e000bc8049008b05e900f7ff3c000103df00ca
:1033f0008606ea00050034008d08dd0070821600a4
:103400008402de00858070000d00dd00060178007a
:103410004f06be004f05be004f04be000000060070
:103420000300e00002003a006000b800020005005e
:103430003400be00020005006218e1001b003500e8
:10344000889fbe008a9fbe008c9fbe008301e9005a
:103450000004be000205be00040678003c00be0069
:103460000801be00dd0007003c004100bc804900af
:103470008b05e900faff3c000103df008606ea0045
:10348000050034008d08dd00708216008402de0025
:10349000858070000d00dd00060178004f06be003b
:1034a0004f05be004f04be00000006000300e00010
:1034b00002003a006000b800020005003400be00bf
:1034c000020005006218e1001d003500889fbe0063
:1034d0008a9fbe008c9fbe008301e9000004be00ed
:1034e0000205be00040678003c00be000801be00d4
:1034f000ba0007008381d1000281d3003c00410063
:10350000bc8049008b05e900f8ff3c000103df00a7
:103510008606ea00050034008d08dd007082160082
:103520008402de00858070000d00dd000601780059
:103530004f06be004f05be004f04be00000006004f
:103540000300e00002003a006000b800020005003d
:103550003400be00020005006218e1003b003500a7
:10356000889fbe008a9fbe008c9fbe008301e90039
:103570000004be000205be00040678006205450096
:103580000a05ea003c00be007050e100170035005b
:103590000d0032007f50e10001003400fa012000ec
:1035a000f00655000801be008c0007000d99de00f2
:1035b000cf99de003c004100bc8049008b05e9004a
:1035c000f8ff3c00140037000801be00830007002c
:1035d00003017800cf99de003c004100bc80490027
:1035e0008b05e900f8ff3c000b003700f0061500e2
:1035f0000801be00790007000a11de008d1add0007
:10360000050171008a99de003c004100bc80490040
:103610008b05e900f6ff3c000103df000605ea0028
:10362000050034008a08dd00700215008402de0007
:10363000858070000a00dd00060178004f06be009c
:103640004f05be004f04be00000006000300e0006e
:1036500002003a006000b800020005003400be001d
:10366000020005008001eb000202df000402ea0014
:103670006f20e10010003a000201d1000181d30067
:103680008080d3004f00dd00f30020000202df0045
:103690000402ea006f20e10007003a000201d100b5
:1036a0000181d3008080d3000000eb00e301200003
:1036b0000202df000402ea000400e0000900320018
:1036c000f00212000411dd00050bde00060171009e
:1036d0008408dd000503de00868070000400dd0044
:1036e000848141000200e000010032000000060079
:1036f000030005000002eb008302df008502ea0000
:103700006f28e10023003a008301d1008281d300b9
:103710000181d3008080d3004f00dd00f400200041
:103720008302df008502ea006f28e10019003a00f9
:103730008301d1008281d3000181d3008080d30036
:103740000000eb00e40120008302df008502ea00b4
:103750006f28e1000f003a008301d1008281d3007d
:103760000181d3008000eb00d40220008302df003f
:103770008502ea006f28e10006003a008301d100cb
:103780008281d3000001eb00c40320008302df002c
:103790008502ea000500e0000c0032007083120090
:1037a0008519dd008613de00878171000511dd00bb
:1037b000860bde00070171008508dd008603de0050
:1037c000878070000500dd00050242000300e00074
:1037d000010032000000060004000500889fbe00c2
:1037e0008a9fbe008c1f78000002be000203be004c
:1037f0000620b800062db8008a80400060814d0088
:103800000724b800072db8008a84440060864d0064
:103810008100440002814c00e0014e000700e000fe
:10382000080035000500e00002003d0006015100df
:10383000878159004f0678004f05be004f04be0037
:10384000000006000401510085815900f5ff370092
:020000040000fa
:020000040002f8
:10a000000a530400010000000600fa00100798003f
:10a010002107980080002000000f78000a00370018
:10a020001e009000900078001e017800660041003c
:10a03000008040002e0190009e00780081004100c9
:10a0400091407800014878001e00780000f0a700d9
:10a050000000ea000000ea004f00de000040780047
:10a060001e0fe9000004e000edff3a003064a80094
:10a070000000000080218000680060000000e00017
:10a08000fcff3a000080fa00000006000600fa001b
:10a09000100798002107980080002000000f78002a
:10a0a0000000000000218000620060000000e0006d
:10a0b000fcff32000a003700ae0090001e0078005e
:10a0c000008040009e009000110190009e017800e9
:10a0d000e68041008100410091407800014878000d
:10a0e0001e00780000f0a7000000ea000000ea006f
:10a0f0004f00de00004078001e0fe9000004e00081
:10a10000edff3a002024a9000080fa0000000600bc
:10a110000a00fa0030079800410798003e009000be
:10a12000640f40000000eb0010079800210037008a
:10a130001e007800104078000080fb00ce009000e8
:10a1400000806800400798001e0fe8000000eb0048
:10a1500020079800110037004e0090006100600059
:10a16000004078000004e000060032004e0090003d
:10a170008000d10010002a0000806800400798008d
:10a18000030037004e0090000000d1004007980007
:10a190002e0090000000e800200798002e0090009c
:10a1a000e70f5000ecff34001e0090000000e800b4
:10a1b000100798009e009000f00b2000808f500048
:10a1c000dbff34004e0090000080fa000000060023
:10a1d0001000fa0050079800620798007307980073
:10a1e000ee009000210798006e009000fe009000a5
:10a1f0004008de000040780032e0b7005e009000ca
:10a2000064004000100798000000eb00000f780089
:10a21000210037001e007800000040008000780018
:10a220002e00900000804000300798003e00900013
:10a230001000ba00400798004e009000804078005f
:10a240001e009000014878001e0090000000e80009
:10a25000100798004e0090004800de008040780013
:10a260001e009000014878001e0090000000e800e9
:10a27000100798003e0090001080ba0080407800df
:10a280001e009000014878001e0090000000e800c9
:10a29000100798001e0fe800f00320009e007800d1
:10a2a000808f5000dbff36000080fa0000000600bf
:10a2b0000a00fa0020079800320798004307980028
:10a2c00080002000000f78000080eb00100798004d
:10a2d0000e0037003e019000ce0190002e0090004d
:10a2e000bbff07003e009000ce0090000008b000c9
:10a2f0000180b00030079800410798009e00900050
:10a300002e00900082ff0700100798001e007800c2
:10a3100000f0a7000000ea000000ea004f00de00a5
:10a32000004078001e0fe9000004e000e9ff3a0059
:10a330001e0090000080fa00000006000600fa00ef
:10a3400010079800210798001e00900040a0900080
:10a35000e10f4000210032001e009000c0a09000dc
:10a36000000c2000808f500004003a001e00900076
:10a370008080eb0041a09800180037000000eb003f
:10a38000000f78000d0037001e00900040a09000e4
:10a390009e0078002e01900081004100114178005c
:10a3a0009e00900080804000c24098008000e8003d
:10a3b0001e00900041a098001e0fe8001e007800cb
:10a3c000e60f500005003c001e009000c0a0900069
:10a3d000f00b2000808f5000ebff34000080fa006b
:10a3e000000006000600fa001007980021079800f8
:10a3f0001e00900040a09000e10f400005003200d8
:10a400001e009000c0a09000000c2000808f500023
:10a4100004003a001e0090008080eb0041a09800ec
:10a42000180037000000eb00000f78000d00370027
:10a430001e007800ae009000808040001e0090005a
:10a4400040a090009e0190006401400063417900ab
:10a45000824878008000e8001e00900041a098002b
:10a460001e0fe8001e007800e50f500005003c00bc
:10a470001e009000c0a09000f00b2000808f5000c4
:10a48000ebff34000080fa00000006000400fa0030
:10a49000008fbe001e00be004008de0000407800b5
:10a4a00032e0b7001e0078008000eb000108bb001e
:10a4b00020042400003b880050052000303b880029
:10a4c000a00a2000303b880061e7a80000000000df
:10a4d000000000000080fa00000006000e00fa00f4
:10a4e00050079800610798005e009000b0a09000af
:10a4f00020a09000200798005e009000640f4000ac
:10a500005e009000c0a09000000c2000808f5000e2
:10a5100006003a008080eb005e009000fcfe070021
:10a52000ee009000810f5000020032000000eb00ae
:10a530003600370010002400003b88005e009000c9
:10a54000b0a0900020a090004008de0000407800fd
:10a5500032e0b7000000eb00100798001f00370042
:10a560001e00900000004000800078002e00900047
:10a5700000804000300798001e00780010407800ee
:10a580000080fb00400798001e0fe8001e007800c6
:10a59000104078000080fb004800dd00ce009000f5
:10a5a00001007000400798001e0fe8003e00900078
:10a5b000ce0090000108bb001e007800104078001b
:10a5c0008080fb001e0fe8003e0090000188bb0069
:10a5d0001e0090000000e800100798009e00900008
:10a5e000f0032000808f5000ddff36005005200072
:10a5f000303b8800a00a2000303b880061e7a800bb
:10a600000000000000000000100020000080fa00a0
:10a61000000006001200fa00000f98008e0078007b
:10a620000e08900099fe07001e0078004400de002e
:10a630006f4060000080fb006f0060004400dd00a0
:10a640004e019000f1f02f008100610001007000c8
:10a65000400798001e0078006f4060000080fb00fb
:10a66000e30f500020003200e30f500007003c00d1
:10a67000e10f500011003200e10f500016003c00c5
:10a680000000e0000800320037003700e50f5000fe
:10a6900029003200e50f500022003500e60f50007f
:10a6a0002b00320030003700f033200050079800b4
:10a6b00090622000600798002d0037002e00900067
:10a6c000be0090000001be000e089000f8fe0700da
:10a6d00050079800260037002e009000be00900022
:10a6e0006aff0700220037002e009000be00900095
:10a6f0000e09900020a1980031a198000e0890004a
:10a70000b0a0900020a090000001be000e089000b4
:10a71000affe07000e0890008000eb0041a09800fb
:10a72000130037000e00e800800078000e0890004b
:10a7300002ff07000e0037001e0090008000780026
:10a740000e08900065ff07005007980008003700ca
:10a75000680047000080e800800078000e08900044
:10a7600020ff0700020037000000fe00ffff370057
:10a7700068004700800078000e08900022fe070065
:04a78000a6ff3700f9
:020000040000fa
:0200000401f009
:04000c00f8ff0000f9
:020000040000fa
:0200000401f009
:040010007bff000072
:020000040000fa
:100008001c0300001c0300001c0300001c0300006c
:100018001c0300001c0300001c0300001c0300005c
:100028001c0300001c0300001c0300001c0300004c
:10003800823100001c0300001c0300001c030000a8
:100048001c0300001c0300001c0300001c0300002c
:100058001c0300001c0300008a3100001c03000080
:100068001c0300001c0300001c0300001c0300000c
:100078001c0300001c0300001c0300001c030000fc
:10008800923100001c0300001c0300001c03000048
:100098001c0300001c0300001c0300001c030000dc
:1000a8001c0300001c0300001c0300001a310000a0
:1000b8009a3100001c0300001c0300001c03000010
:1000c8001c0300001c0300001c0300001c030000ac
:1000d8001c0300001c030000a23100001c030000e8
:1000e8001c0300001c0300001c0300001c0300008c
:1000f8001c0300001c0300001c0300001c0300007c
:100108001c0300001c0300001c0300001c0300006b
:100118001c030000aa3100001c0300001c0300009f
:100128001c0300001c0300001c0300001c0300004b
:10013800b2310000ba3100001c0300001c030000ab
:100148001c0300001c0300001c0300001c0300002b
:100158001c0300001c0300001c0300001c0300001b
:100168001c0300001c0300001c0300001c0300000b
:100178001c0300001c0300001c0300001c030000fb
:100188001c0300001c0300001c0300001c030000eb
:100198001c0300001c0300001c0300001c030000db
:1001a8001c0300001c0300001c0300001c030000cb
:1001b8001c0300001c0300001c0300001c030000bb
:1001c8001c0300001c0300001c0300001c030000ab
:1001d8001c0300001c0300001c0300001c0300009b
:1001e8001c0300001c0300001c0300001c0300008b
:0801f8001c0300001c030000c1
:020000040000fa
:100208001c0300001c0300001c0300001c0300006a
:100218001c0300001c0300001c0300001c0300005a
:100228001c0300001c0300001c0300001c0300004a
:10023800823100001c0300001c0300001c030000a6
:100248001c0300001c0300001c0300001c0300002a
:100258001c0300001c0300008a3100001c0300007e
:100268001c0300001c0300001c0300001c0300000a
:100278001c0300001c0300001c0300001c030000fa
:10028800923100001c0300001c0300001c03000046
:100298001c0300001c0300001c0300001c030000da
:1002a8001c0300001c0300001c0300001a3100009e
:1002b8009a3100001c0300001c0300001c0300000e
:1002c8001c0300001c0300001c0300001c030000aa
:1002d8001c0300001c030000a23100001c030000e6
:1002e8001c0300001c0300001c0300001c0300008a
:1002f8001c0300001c0300001c0300001c0300007a
:100308001c0300001c0300001c0300001c03000069
:100318001c030000aa3100001c0300001c0300009d
:100328001c0300001c0300001c0300001c03000049
:10033800b2310000ba3100001c0300001c030000a9
:100348001c0300001c0300001c0300001c03000029
:100358001c0300001c0300001c0300001c03000019
:100368001c0300001c0300001c0300001c03000009
:100378001c0300001c0300001c0300001c030000f9
:100388001c0300001c0300001c0300001c030000e9
:100398001c0300001c0300001c0300001c030000d9
:1003a8001c0300001c0300001c0300001c030000c9
:1003b8001c0300001c0300001c0300001c030000b9
:1003c8001c0300001c0300001c0300001c030000a9
:1003d8001c0300001c0300001c0300001c03000099
:1003e8001c0300001c0300001c0300001c03000089
:0803f8001c0300001c030000bf
:020000040000fa
:1038500000e20000c7af00009a8600007464000018
:10386000554800003b2f0000251a000011080000f9
:103870000000000000000000000000000000000048
:103880000039000057840000fbff000048e0000002
:1038900023870000fcff0000fe3b0000d3a70000d0
:1038a000fdff0000e4100000408e0000fdff00005e
:1038b000d28c000052ba0000feff0000f6c80000e3
:1038c00039ae0000feff0000249e0000f8a20000b8
:1038d000feff00004480000065490000feff00007c
:1038e000b6610000e47e0000fdff0000f2b30000be
:1038f0002f6a0000fdff000066e300004c56000048
:10390000fdff0000121600001e450000fdff000034
:10391000581700000d630000fcff0000d660000097
:10392000d6410000fcff00003a6c00000a7e000057
:10393000faff00000000000000000000000000008e
:10394000b9650000cf0c000046f80000fcef000055
:103950002f550000551500002c00000000e000006d
:1039600000000000004000001c6c00000cf700008c
:10397000476b0000cc0c0000dbaa0000aaea0000a4
:1039800000000000004000000000000000000000f7
:1039900000000000e4d700006d7d0000fdff000086
:1039a000159c0000b1760000feff00008c3e000078
:1039b0005e520000ffff000051ed00008764000030
:1039c000ffff00005ef10000b1720000ffff000089
:1039d0004a2f0000cc7d0000ffff00004b86000056
:1039e000db46000000000000ad5d0000f04f00006d
:1039f0000000000054320000da5400000000000013
:103a000054cc0000e5570000000000008e210000ab
:103a1000f659000000000000ee150000735b000086
:103a200000000000aa7e0000925c00000000000080
:103a300015ae0000aa0200002abf0000aa0a00007a
:103a4000ffff0000ff1f0000ffff0000ff3f00001e
:103a500000000000004000000000000000400000e6
:103a6000b4610000d5420000f2e00000ca45000049
:103a7000bae90000e148000028f800001b4c0000f3
:103a8000309900007a4f0000546b0000ff52000094
:103a9000761f0000ac5600009a790000825a0000a0
:103aa000d0510000845e000008950000b362000061
:103ab0000a46000012670000667e0000a26b00004c
:103ac000766f00006670000074630000607500008f
:103ad0008abe0000927a000051ed00008764000069
:103ae0000000000069840000d1420000deff0000f9
:103af00051ed0000876400000100000069840000af
:103b0000d1420000dfff0000fcf10000654b000027
:103b10000200000069a4000043660000e3ff00000b
:103b200051ed00008764000002000000698400007d
:103b3000d1420000e0ff0000a5e80000a97d0000e0
:103b40000200000060790000e1540000e2ff000084
:103b5000fcf10000654b00000300000069a40000b8
:103b600043660000e4ff0000101000001111000087
:103b700012120000131300001314000014150000ab
:103b80001515000016160000161700001717000084
:103b90001818000018190000191900001a1a00005e
:103ba0001a1b00001b1b00001b1c00001c1c00003b
:103bb0001d1d00001d1d00001e1e00001e1e000019
:103bc0001f1f00001f1f0000690b00000000000005
:103bd000ddbf0000fcff00008588000088000000b9
:103be0005555000055f500000000000000400000a1
:103bf0006e66000000000000503f0000e9ff00007a
:103c00008aaa0000aa0200000100000000e00000f3
:083c100000000000004000006c
:020000040000fa
:103c1800706f0000736500005f730000656e000040
:103c280064650000720000007370000065650000a4
:103c3800645f0000736500006e6400006572000038
:103c4800000000000000000000000000702d0000cf
:103c58000a490000184900002649000032490000be
:103c68000000000000000000e22c00000a490000eb
:103c7800184900002649000032490000506f000032
:103c880073690000746900006f6e0000436f0000e4
:103c98006e740000726f00006c00000000000000ed
:103ca80000000000ce4200000a4900001849000048
:103cb8002649000032490000984100000000000039
:103cc80000000000466300000a490000184900008f
:103cd800264900003249000046630000506f00008a
:103ce80073690000746900006f6e0000436f000084
:103cf8006e740000726f00006c000000000000008d
:103d080000000000e04600000a49000018490000d1
:103d18002649000032490000c245000000000000aa
:103d280000000000466300000a490000184900002e
:103d3800264900003249000046630000506f000029
:103d480073690000746900006f6e0000436f000023
:103d58006e740000726f00006c000000000000002c
:103d6800000000002a3500000a4900001849000038
:103d78002649000032490000d0330000000000004e
:103d880000000000466300000a49000018490000ce
:103d9800264900003249000046630000506f0000c9
:103da80073690000746900006f6e0000436f0000c3
:103db8006e740000726f00006c00000000000000cc
:103dc800000000003c3d00000a49000018490000be
:103dd8002649000032490000466300000000000048
:103de80000000000466300000a490000184900006e
:103df8002649000032490000466300007370000045
:103e080065650000645f0000636f00006e74000069
:103e1800726f00006c00000000000000000000004d
:103e2800785e00000a490000184900002649000091
:103e3800324900006b6900006e6500006d6100008a
:103e480074690000637300000000000000000000b7
:103e580000000000ac4a00000a49000018490000b0
:103e68002649000032490000000000000000000060
:103e7800c25100009c510000aa51000026490000d0
:103e880032490000b85100000000000000000000a6
:103e9800466300000a49000018490000264900004e
:103ea800324900000000000000000000c857000070
:103eb8000000000000000000466300000000000051
:103ec8000000000046630000000000000000000041
:083ed800a061000004000000dd
:020000040000fa
:103ee0000400fa00000f7800110798001e00780007
:103ef000e10f500012003200e10f500005003900c0
:103f0000e20f50001a003200e30f5000240032008c
:103f10002e0037001e009000004078006f406000c7
:103f20000080fb006f0060000221800001ff2f0075
:103f3000810061000100700000218800230037002b
:103f40001e009000004078006f4060000080fb0081
:103f50006f0060004400dd0002218000f1f02f00be
:103f60008100610001007000002188001700370007
:103f70001e009000004078006f4060000080fb0051
:103f80006f0060004800dd0002218000f10f2f006b
:103f90008100610001007000002188000b003700e3
:103fa0001e009000004078006f4060000080fb0021
:103fb0004c00dd0002218000f1ff20008100610043
:103fc0000100700000218800000000000080fa005d
:103fd000000006000400fa00000f780011079800a6
:103fe0009e007800648f50001e007800e10f5000a2
:103ff00012003200e10f500005003900e20f5000be
:104000001a003200e30f5000240032002e00370067
:104010001e009000004078006f4060000080fb00b0
:104020006f0060001221800001ff2f0081006100fd
:104030000100700010218800230037001e0090004e
:10404000004078006f4060000080fb006f0060005f
:104050004400dd0012218000f1f02f00810061009a
:104060000100700010218800170037001e0090002a
:10407000004078006f4060000080fb006f0060002f
:104080004800dd0012218000f10f2f008100610047
:1040900001007000102188000b0037001e00900006
:1040a000004078006f4060000080fb004c00dd00a5
:1040b00012218000f1ff20008100610001007000ea
:1040c00010218800000000000080fa0000000600b7
:1040d0000400fa00000f7800110798009e00780095
:1040e000688f50001e007800e10f5000120032006f
:1040f000e10f500005003900e20f50001a003200b5
:10410000e30f5000240032002e0037001e00900004
:10411000004078006f4060000080fb006f0060008e
:104120002221800001ff2f0081006100010070004a
:1041300020218800230037001e00900000407800f6
:104140006f4060000080fb006f0060004400dd00f5
:1041500022218000f1f02f00810061000100700039
:1041600020218800170037001e00900000407800d2
:104170006f4060000080fb006f0060004800dd00c1
:1041800022218000f10f2f008100610001007000ea
:10419000202188000b0037001e00900000407800ae
:1041a0006f4060000080fb004c00dd002221800099
:1041b000f1ff2000810061000100700020218800d3
:1041c000000000000080fa00000006000400fa0071
:1041d000000f7800110798009e0078006c8f500047
:1041e0001e007800e10f500012003200e10f500075
:1041f00005003900e20f50001a003200e30f5000b2
:10420000240032002e0037001e009000004078008d
:104210006f4060000080fb006f0060003221800072
:1042200001ff2f0081006100010070003021880033
:10423000230037001e009000004078006f406000af
:104240000080fb006f0060004400dd003221800030
:10425000f1f02f0081006100010070003021880022
:10426000170037001e009000004078006f4060008b
:104270000080fb006f0060004800dd0032218000fc
:10428000f10f2f00810061000100700030218800d3
:104290000b0037001e009000004078006f40600067
:1042a0000080fb004c00dd0032218000f1ff200087
:1042b00081006100010070003021880000000000d2
:1042c0000080fa00000006002000fa00200f98008d
:1042d000320f9800430f9800510f9800640f980018
:1042e000750f98006000b800008fbe006000b80035
:1042f00020079800310798006000b8004007980038
:10430000510798000004a8002e089000000040000b
:104310000000400080007800004420000080400041
:10432000600798002e0890004380de0000004000e7
:1043300080007800804120000080400070079800d5
:1043400040412000000f98005e089000e10f5000ef
:1043500049003a003e099000ce099000f0ff2f007e
:10436000010020000202780003017800800178003b
:104370000100780003026200000061008000eb0091
:10438000c000dd00000020000001be006120b80078
:1043900000017100818171002207980033079800a5
:1043a0003e089000ce0890004088de00cf80de00fe
:1043b0000001be0030002000010020000202780051
:1043c0000301780080017800010078000302620098
:1043d000000061008000eb00c000dd000000200054
:1043e0000001be006120b8000001710081817100f0
:1043f00042079800530798003e089000ce089000ae
:104400004288de00cf80de000001be00f07f200089
:10441000010020000202780083017800000178008a
:104420000100780002016200008061008000eb0062
:10443000c000dd0000002000008fbe006110b80049
:104440001e1f70001e9770001e007800c500dd0062
:104450004e00900000804000e80040006e00900098
:10446000010878006e0090000080e800ae00900027
:1044700001087800190037003e099000ce0990002d
:10448000f07f200001002000020278008301780004
:1044900000017800010078000201620000806100e4
:1044a0008000eb00c000dd0000002000008fbe0097
:1044b0006110b8001e1f70001e9770001e0078006b
:1044c000c500dd006e009000010878006e009000cd
:1044d0000080e8008000eb00010878002e089000c2
:1044e0004280de00100f98001e089000e10f50007f
:1044f0000e003200e10f500003003c000000e0001d
:104500000600320015003700e20f50000b003200a9
:10451000e30f50000d003200100037002e0890000d
:10452000ee0890006efe07000c0037002e08900089
:10453000ee089000a7fe0700080037002e08900044
:10454000ee089000e2fe0700040037002e089000fd
:10455000ee0890001dff0700000000007e009000a4
:10456000900078002e089000670060000000400076
:10457000320020000010dd000080ea008080600032
:104580007e009000010878002e089000670060000f
:1045900000004000fe0890008008dd007e009000d2
:1045a00010007800810070007e0090000108780003
:1045b000110020002e0890000008dd008000780027
:1045c0000e08900010007800810070000e08900026
:1045d000010878000004a9000080fa00000006002d
:1045e0001800fa0070079800020f9800130f980047
:1045f000210f9800340f98006000b800008fbe00b3
:104600006000b80020079800310798006000b800eb
:1046100040079800510798000004a8007e00900011
:1046200000004000000040008000780000432000af
:1046300000804000600798003e089000e10f5000a5
:1046400053003a000e0990009e099000f0ff2f00e1
:104650000100200002027800030178008001780048
:104660000100780003026200000061008000eb009e
:10467000c000dd00000020000001be006120b80085
:1046800000017100818171002207980033079800b2
:104690000e0890009e0890004088de00cf80de006b
:1046a0000001be003000200001002000020278005e
:1046b00003017800800178000100780003026200a5
:1046c000000061008000eb00c000dd000000200061
:1046d0000001be006120b8000001710081817100fd
:1046e00042079800530798000e0890009e0890001b
:1046f0004288de00cf80de000001be00f07f200097
:104700000100200002027800830178000001780097
:104710000100780002016200008061008000eb006f
:10472000c000dd0000002000008fbe006110b80056
:104730001e1f70001e9770002e089000e10f5000a1
:1047400008003a001e007800c500dd004e00900011
:1047500000804000e80040006e00900001087800f2
:10476000060037001e007800c500dd004e009000f6
:10477000808040006e009000010878006e0090007c
:104780000080e800ae0090000108780022003700a9
:104790000e0990009e099000f07f2000010020008b
:1047a000020278008301780000017800010078009f
:1047b00002016200008061008000eb00c000dd00ab
:1047c00000002000008fbe006110b8001e1f7000a6
:1047d0001e9770002e089000e10f500006003a006e
:1047e0001e0078004500dd00e80040006e009000eb
:1047f00001087800040037001e007800c500dd00c5
:104800006e009000010878006e0090000080e800c3
:104810008000eb00010878000004a9000080fa0085
:10482000000006002200fa00400f9800520f980086
:10483000630f9800710f9800041798006000b8008b
:10484000008fbe006000b800200798003107980074
:104850006000b80040079800510798006000b80059
:1048600060079800710798006000b800000f98007a
:10487000110f98006000b800200f9800310f9800c9
:104880007e0890000000e000460032005e099000c3
:10489000ee099000f00320000100200002027800e1
:1048a00003017800800178000100780003026200b3
:1048b000000061008000eb00c000dd00000020006f
:1048c0000001be006120b80000017100818171000b
:1048d000020f9800130f98005e089000ee089000f9
:1048e0004a09dd004600de0000007100c688de00d7
:1048f0000001be00f0ff200001002000020278004d
:104900000301780080017800010078000302620052
:10491000000061008000eb00c000dd00000020000e
:104920000001be006120b8000001710081817100aa
:10493000220f9800330f98005e089000ee08900058
:104940004288de00cf80de000001be00f07f200044
:104950000100200002027800030178008001780045
:104960000100780003026200000061008000eb009b
:10497000c000dd00000020000001be006120b80082
:10498000000171008181710062079800730798002f
:104990002e099000be099000220798003307980066
:1049a000130037005e099000ee099000f07f2000b0
:1049b00001002000020278000301780080017800e5
:1049c0000100780003026200000061008000eb003b
:1049d000c000dd00000020000001be006120b80022
:1049e00000017100818171006207980073079800cf
:1049f0000e109000e10f50001a003a006e00900077
:104a0000fe0090004209dd00ce01de00830171004e
:104a10004201dd007e0890008000eb000000710084
:104a2000818071000001be000210a000028fbe0054
:104a30000e0890009e0890004a09dd00c601de00c5
:104a4000830171004a01dd000020200001002000e8
:104a500000007100818071004007980051079800a4
:104a6000120037006e009000fe0090004209dd0049
:104a7000ce01de00830171004201dd007e0890005e
:104a80008000eb00001f7100019771000e0990007b
:104a90009e0990004a18dd00c610de0081007000fb
:104aa0004a10dd0040079800510798007e089000ea
:104ab0000000e000090032001e007800800078004d
:104ac0000110a0004e0890004401dd0000402400c9
:104ad0000000410001087800060037009e007800c1
:104ae0004e0890004401dd00004024000000410019
:104af00001087800ae0090004e0890004401dd00ef
:104b0000204024000000410001087800ce00900001
:104b10004e0890004401dd004040240000004100a8
:104b2000010878000080fa00000006000c00fa007e
:104b3000000f7800110798002207980033079800ab
:104b400044079800550798001e0078004400dd00d7
:104b5000e400400000402400008040009000780005
:104b600000ff2f00808060001e00900080804000c9
:104b70001e0078004401dd00404024000000410098
:104b8000010878001e007800c400dd0060402400a9
:104b900000804000ae009000010878001e00780000
:104ba000c400dd008040240000804000be00900072
:104bb000010878001e007800c400dd00a040240039
:104bc00000804000ce009000010878001e007800b0
:104bd000c400dd00c040240000804000de009000e2
:104be000010878000080fa00000006000600fa00c4
:104bf000000f780011079800220798001e00780027
:104c00004400dd00e400400000402400008040003b
:104c10009000780000ff2f00808060002e00900040
:104c2000808040001e0078004401dd0040402400e8
:104c300000004100010878001e0078004400dd00fb
:104c4000e600400000402400008040002e0190005b
:104c50009e009000daf007000080fa0000000600d5
:104c60000200fa00000f78001e007800e30f5000e9
:104c700018003200e30f500007003c00e10f500025
:104c800010003200e10f500010003c000000e00076
:104c90000a00320019003700e50f50001100320001
:104ca000e50f50000d003500e60f50000f003200f8
:104cb000e70f50000f003200100037003064a800ea
:104cc0000e0037003164a8000c0037003264a800e1
:104cd0000a0037003364a800080037003464a800d5
:104ce000060037003564a800040037003664a800c9
:104cf000020037003764a800000000000080fa00be
:104d0000000006000200fa00000f78001e00780084
:104d1000e30f500021003200e30f500007003c0079
:104d2000e10f500013003200e10f500016003c006c
:104d30000000e0000a00320031003700e50f5000ab
:104d400020003200e50f500019003500e60f50003a
:104d500021003200e70f5000240032002800370005
:104d6000802180004300de00614060000080fb0085
:104d700024003700802180004b00de00614060008d
:104d80000080fb001f003700902180004300de0000
:104d9000614060000080fb001a0037009021800015
:104da0004b00de00614060000080fb001500370012
:104db000a02180004300de00614060000080fb0015
:104dc00010003700a02180004b00de006140600031
:104dd0000080fb000b003700b02180004300de00a4
:104de000614060000080fb0006003700b0218000b9
:104df0004b00de00614060000080fb0001003700d6
:104e00000000eb000080fa00000006000200fa003b
:104e1000000f7800014024001e0078004400dd00ef
:104e2000008040000080fa00000006000200fa0046
:104e3000000f78001e007800e30f50001f003200c2
:104e4000e30f500007003c00e10f50001300320058
:104e5000e10f500014003c000000e0000a003200a6
:104e600029003700e50f50001c003200e50f50000c
:104e700015003500e60f50001b003200e70f500010
:104e80001e00320020003700802180008000780062
:104e9000f00f2000008060001c003700802180009f
:104ea0004800de0019003700902180008000780063
:104eb000f00f200000806000140037009021800077
:104ec0004800de0011003700a0218000800078003b
:104ed000f00f2000008060000c003700a02180004f
:104ee0004800de0009003700b02180008000780013
:104ef000f00f20000080600004003700b021800027
:104f00004800de00010037000000eb000080fa00de
:104f1000000006000200fa00000f78001e00780072
:104f2000ef0f50000c003c00110020001e00780024
:104f30000008dd0080007800002180000080600013
:104f400000f0a7000000ea000000ea004f00de00c9
:104f5000004078000c0037009e0078007080500000
:104f6000110020000008dd00800078001021800082
:104f70000080600000f0a7000000ea000000ea00e6
:104f80004f00de00004078000080fa0000000600bc
:104f90000200fa00000f78001e007800ef0f5000aa
:104fa00009003c00110020001e0078000008dd0010
:104fb0000080ea008000780000218000008060000e
:104fc00000218800090037009e00780070805000a2
:104fd000110020000008dd000080ea008000780059
:104fe0001021800000806000102188000080fa00fd
:104ff000000006000400fa00100798000004a80052
:1050000040412000000f78001e00780090007800da
:10501000120020001e0090000010dd000080ea0059
:10502000808060001e007800010878000004a9005c
:105030000080fa00000006000200fa00000f78006d
:105040001e00780011c0b300214898000080fa00cb
:10505000000006000200fa00000f78001e00780031
:105060008040eb00214898000080fa000000060014
:105070000200fa00000f78001e007800204890001f
:105080000080fa00000006000400fa00000f78001b
:10509000110798001e0078009e00900031009800d3
:1050a0000080fa00000006000200fa00000f7800fd
:1050b0001e0078001000be000080fa00000006000c
:1050c0000200fa00000f78001e007800b000900087
:1050d000200090000080fa00000006000600fa00a0
:1050e000000f780012079800230798001e00780030
:1050f0001e019000ae0190000288be000080fa0000
:10510000000006000600fa00000f78001207980061
:10511000230798001e0078001e019000ae01900049
:1051200022009800330098000080fa00000006007a
:105130000200fa00000f78001e007800d0009000f6
:10514000400090000080fa00000006000600fa000f
:10515000000f780012079800230798001e007800bf
:105160001e019000ae01900042009800530098008c
:105170000080fa00000006000600fa00000f780028
:1051800012079800230798001e0078001e01900067
:10519000ae01900032109800431098000080fa0091
:1051a000000006000200fa00000f78001e007800e0
:1051b000b0189000201890000080fa00000006004f
:1051c0000200fa00000f78001e007800d01890004e
:1051d000401890000080fa00000006000200fa006b
:1051e000000f78001e007800101890000080fa0070
:1051f000000006000a00fa00000f7800120798006d
:105200002307980034079800450798001e0078008f
:105210001e019000ae01900062089800730898008b
:105220001e0078003e019000ce0190000210980010
:10523000131098001e007800100078000080e8002d
:10524000900078001e007800010001000080fa0044
:10525000000006000600fa00000f78001107980011
:10526000220798008040eb001e007800871a070094
:105270001e0078009e009000410898001e007800f3
:10528000ae00900051089800ae0090001e00900003
:10529000e71b07000080fa00000006000200fa0089
:1052a000000f78001e007800400890000080fa008f
:1052b000000006000200fa00000f78001e007800cf
:1052c000500890000080fa00000006000600fa0076
:1052d000000f780011079800220798001e00780040
:1052e00030089000ea1907001e0190000089be00f6
:1052f0001e00780030089000ec1907002e01900085
